:100000000C942A000C94130C0C94400C0C946D0C62
:100010000C9447000C9447000C9447000C94470044
:100020000C9447000C9447000C9447000C94DC0897
:100030000C9447000C9447000C9447000C94470024
:100040000C9447000C9447000C9447000C94470014
:100050000C94470011241FBECFE5D8E0DEBFCDBF12
:1000600011E0A0E6B0E0E2E2F6E202C005900D92F7
:10007000A438B107D9F711E0A4E8B1E001C01D929E
:10008000AD39B107E1F70E94CF120C940F130C9415
:100090000000EF92FF920F931F937B018C0120E0F1
:1000A00030E040E05FE40E94F50388238CF0C80153
:1000B000B70120E030E040E05FE40E94C1010E940F
:1000C00055049B01AC01205030404040504806C0D0
:1000D000C801B7010E9455049B01AC01B901CA01D6
:1000E0001F910F91FF90EF900895A0E0B0E0EBE733
:1000F000F0E00C94D812DC012B01FA019C919230B3
:1001000008F439C1EB018881823008F433C194309E
:1001100069F4843009F02FC111969C91119789815F
:10012000981709F428C1A0E6B0E025C1843009F48D
:1001300021C18230A9F4923009F01DC19A01AD01AC
:1001400088E0EA010990AE01E90109929E0181501F
:10015000C1F7E201898111969C918923818308C1AD
:10016000923009F407C112962D903C901397EB0141
:100170008A819B811496AD90BD90CD90DC901797AD
:10018000EC80FD800E811F819101281B390BB90184
:1001900037FF04C066277727621B730B6032710537
:1001A0000CF061C0121613066CF537014801062EDB
:1001B00004C096948794779467940A94D2F721E0C8
:1001C00030E040E050E004C0220F331F441F551FB1
:1001D0006A95D2F721503040404050402E213F21B7
:1001E00040235123211531054105510521F021E01E
:1001F00030E040E050E079018A01E628F72808293C
:1002000019293CC0232BD1F1260E371E350146019A
:10021000062E04C096948794779467940A94D2F734
:1002200021E030E040E050E004C0220F331F441FC3
:10023000551F6A95D2F721503040404050402A2146
:100240003B214C215D21211531054105510521F04E
:1002500021E030E040E050E059016A01A628B728CB
:10026000C828D9280BC0821593052CF01C01AA249C
:10027000BB24650103C0EE24FF24870111969C91E5
:10028000D20111968C91981709F445C0992339F041
:10029000A80197012A193B094C095D0906C0A6016E
:1002A00095012E193F09400B510B57FD08C01182D3
:1002B0003382228224833583468357831DC081E0A5
:1002C00081833382228288279927DC01821B930B4A
:1002D000A40BB50B84839583A683B7830DC0220F2F
:1002E000331F441F551F24833583468357838281E0
:1002F000938101979383828324813581468157813D
:10030000DA01C9010197A109B1098F5F9F4FAF4F72
:10031000BF4328F30BC0918333822282EA0CFB1C7B
:100320000C1D1D1DE482F5820683178383E0808304
:10033000248135814681578157FF1AC0C901AA27F8
:1003400097FDA095BA2F81709070A070B0705695EF
:10035000479537952795822B932BA42BB52B848318
:100360009583A683B7838281938101969383828349
:10037000DF0101C0D201CD01CDB7DEB7E2E10C94BF
:10038000F412A0E2B0E0E7ECF1E00C94E41269832F
:100390007A838B839C832D833E834F835887E9E048
:1003A000EE2EF12CEC0EFD1ECE010196B7010E943F
:1003B00046068E010F5E1F4FCE010596B8010E94C2
:1003C00046068A8991E089278A8BC701B801AE0168
:1003D000475E5F4F0E9475000E947105A096E6E09F
:1003E0000C940013A0E2B0E0E8EFF1E00C94E4120A
:1003F00069837A838B839C832D833E834F835887C5
:10040000F9E0EF2EF12CEC0EFD1ECE010196B701A6
:100410000E9446068E010F5E1F4FCE010596B80161
:100420000E944606C701B801AE01475E5F4F0E94B9
:1004300075000E947105A096E6E00C940013A0E2FE
:10044000B0E0E5E2F2E00C94D81269837A838B8302
:100450009C832D833E834F835887CE010196BE0136
:10046000675F7F4F0E944606CE010596BE016F5E14
:100470007F4F0E9446069985923088F089898230A4
:10048000C8F0943019F4823051F404C0843029F457
:10049000923081F480E690E0C6C0923049F420E0CA
:1004A0009A858A89981321E02A87CE010996BBC0D4
:1004B000823049F420E09A858A89981321E02A8BBA
:1004C000CE014196B0C02D843E844F8458886D88FB
:1004D0007E888F88988CEE24FF248701AA24BB2471
:1004E000650140E050E060E070E0E0E0F0E0C10174
:1004F00081709070892BE9F0E60CF71C081D191D1E
:100500009A01AB012A0D3B1D4C1D5D1D80E090E062
:10051000A0E0B0E0E614F7040805190520F481E036
:1005200090E0A0E0B0E0BA01A901480F591F6A1F8E
:100530007B1FAA0CBB1CCC1CDD1C97FE08C081E0F5
:1005400090E0A0E0B0E0A82AB92ACA2ADB2A3196B6
:10055000E032F10549F0660C771C881C991C569412
:10056000479437942794C3CFFA85EA892B893C892D
:100570008B859C85280F391F2E5F3F4F17C0CA01FE
:1005800081709070892B61F016950795F794E79428
:1005900080E090E0A0E0B0E8E82AF92A0A2B1B2BC3
:1005A00076956795579547952F5F3F4F77FDE7CF36
:1005B0000CC0440F551F661F771F17FD4160EE0CDE
:1005C000FF1C001F111F21503040403090E05907A0
:1005D00090E0690790E4790760F32B8F3C8FDB0193
:1005E000CA018F779070A070B07080349105A1051A
:1005F000B10561F447FD0AC0E114F10401051105DC
:1006000029F0405C5F4F6F4F7F4F40781A8EFE1786
:1006100011F081E08A8F4D8F5E8F6F8F78A383E01A
:10062000898FCE0149960E947105A096E2E10C9453
:10063000F412A8E1B0E0EFE1F3E00C94E01269837A
:100640007A838B839C832D833E834F835887B9E0C5
:10065000EB2EF12CEC0EFD1ECE010196B7010E948F
:1006600046068E010F5E1F4FCE010596B8010E940F
:1006700046062985223008F47EC03989323010F4CC
:10068000B8017CC08A859A8989278A87243011F02D
:10069000223031F4231709F06EC060E670E06EC0BE
:1006A000343039F41D861E861F86188A1C861B86E8
:1006B00004C0323021F484E08987B7015FC02B8504
:1006C0003C858B899C89281B390B3C872B87ED84C3
:1006D000FE840F851889AD88BE88CF88D88CEA142F
:1006E000FB040C051D0540F4EE0CFF1C001F111F40
:1006F000215030403C872B8720E030E040E050E044
:1007000080E090E0A0E0B0E460E070E0EA14FB0478
:100710000C051D0540F0282B392B4A2B5B2BEA18C2
:10072000FB080C091D09B695A79597958795EE0CC2
:10073000FF1C001F111F6F5F7F4F6F31710531F775
:10074000DA01C9018F779070A070B0708034910584
:10075000A105B10561F427FD0AC0E114F10401050A
:10076000110529F0205C3F4F4F4F5F4F20782D87B8
:100770003E874F87588BBE01675F7F4FCB010E943A
:1007800071056896EAE00C94FC12A8E1B0E0EBEC8D
:10079000F3E00C94E41269837A838B839C832D832A
:1007A0003E834F83588789E0E82EF12CEC0EFD1E26
:1007B000CE010196B7010E9446068E010F5E1F4FC3
:1007C000CE010596B8010E9446068985823040F028
:1007D0008989823028F0C701B8010E94BE0601C095
:1007E00081E06896E6E00C940013A8E1B0E0EBEF3E
:1007F000F3E00C94E41269837A838B839C832D83CA
:100800003E834F83588789E0E82EF12CEC0EFD1EC5
:10081000CE010196B7010E9446068E010F5E1F4F62
:10082000CE010596B8010E9446068985823040F0C7
:100830008989823028F0C701B8010E94BE0601C034
:100840008FEF6896E6E00C940013A8E1B0E0EBE2CD
:10085000F4E00C94E41269837A838B839C832D8368
:100860003E834F83588789E0E82EF12CEC0EFD1E65
:10087000CE010196B7010E9446068E010F5E1F4F02
:10088000CE010596B8010E9446068985823040F067
:100890008989823028F0C701B8010E94BE0601C0D4
:1008A00081E06896E6E00C940013ACE0B0E0EBE584
:1008B000F4E00C94E81269837A838B839C83CE01E5
:1008C0000196BE016B5F7F4F0E9446068D8182308C
:1008D00061F1823050F1843021F48E81882351F10E
:1008E0002EC02F81388537FD20C06E812F31310514
:1008F0001CF06623F9F023C08EE190E0821B930B7D
:1009000029853A854B855C8504C056954795379572
:1009100027958A95D2F76623B1F05095409530958A
:1009200021953F4F4F4F5F4F0EC020E030E040E039
:1009300050E009C02FEF3FEF4FEF5FE704C020E02A
:1009400030E040E050E8B901CA012C96E2E00C9496
:100950000413A8E0B0E0EFEAF4E00C94E0127B01AD
:100960008C01611571058105910519F482E0898377
:1009700060C083E089838EE1C82ED12CDC82CB82DB
:10098000ED82FE820F831887C801B7010E942205FD
:10099000FC013197F7FF3BC0222733272E1B3F0B6B
:1009A00057016801022E04C0D694C794B794A79447
:1009B0000A94D2F740E050E060E070E081E090E01F
:1009C000A0E0B0E004C0880F991FAA1FBB1F2A95A2
:1009D000D2F70197A109B1098E219F21A023B1234C
:1009E0000097A105B10521F041E050E060E070E022
:1009F0004A295B296C297D294D835E836F83788723
:100A00008EE190E08E1B9F0B9C838B8312C03097EE
:100A100081F00E2E04C0EE0CFF1C001F111F0A9463
:100A2000D2F7ED82FE820F831887CE1ADF0ADC82AE
:100A3000CB821A82CE0101960E9471052896EAE0C7
:100A40000C94FC12EF92FF920F931F937B018C0189
:100A500080E0E81680E0F80681E0080780E01807EB
:100A600088F48FEFE816F1040105110531F028F044
:100A700088E090E0A0E0B0E017C080E090E0A0E067
:100A8000B0E012C080E0E81680E0F80680E00807D9
:100A900081E0180728F088E190E0A0E0B0E004C011
:100AA00080E190E0A0E0B0E020E230E040E050E003
:100AB000281B390B4A0B5B0B04C016950795F7945E
:100AC000E7948A95D2F7F701E859FF4F8081281BF8
:100AD000310941095109C9011F910F91FF90EF9010
:100AE0000895DF92EF92FF920F931F93FC01E48031
:100AF000F58006811781D1808081823048F480E0C2
:100B000090E0A0E1B0E0E82AF92A0A2B1B2BA5C04F
:100B1000843009F49FC0823021F4EE24FF24870141
:100B200005C0E114F1040105110519F4E0E0F0E05D
:100B300096C0628173819FEF623879070CF05BC0C9
:100B400022E83FEF261B370B2A3131052CF020E03D
:100B500030E040E050E02AC0B801A701022E04C0F6
:100B600076956795579547950A94D2F781E090E07E
:100B7000A0E0B0E004C0880F991FAA1FBB1F2A95F0
:100B8000D2F70197A109B1098E219F21A023B1239A
:100B90000097A105B10521F081E090E0A0E0B0E070
:100BA0009A01AB01282B392B4A2B5B2BDA01C901A7
:100BB0008F779070A070B07080349105A105B10559
:100BC00039F427FF09C0205C3F4F4F4F5F4F04C0EF
:100BD000215C3F4F4F4F5F4FE0E0F0E02030A0E05E
:100BE0003A07A0E04A07A0E45A0710F0E1E0F0E07D
:100BF00079018A0127C06038710564F5FB01E1586D
:100C0000FF4FD801C7018F779070A070B07080340B
:100C10009105A105B10539F4E7FE0DC080E490E02F
:100C2000A0E0B0E004C08FE390E0A0E0B0E0E80E08
:100C3000F91E0A1F1B1F17FF05C016950795F7948D
:100C4000E794319687E016950795F794E7948A958F
:100C5000D1F705C0EE24FF248701EFEFF0E06E2FFF
:100C6000679566276795902F9F77D794DD24D79453
:100C70008E2F8695492F462B582F5D29B701CA0123
:100C80001F910F91FF90EF90DF900895FC01DB0121
:100C9000408151812281622F6F7770E0221F2227CD
:100CA000221F9381892F880F822B282F30E0991FD4
:100CB0009927991F11969C93119721153105A9F534
:100CC000411551056105710511F482E037C082E8D4
:100CD0009FEF13969C938E9312979A01AB0167E056
:100CE000220F331F441F551F6A95D1F783E08C9361
:100CF0000DC0220F331F441F551F12968D919C91DA
:100D00001397019713969C938E931297203080E04F
:100D1000380780E0480780E4580758F314962D936D
:100D20003D934D935C93179708952F3F310579F4C8
:100D3000411551056105710519F484E08C930895FE
:100D400064FF03C081E08C9312C01C9210C02F5727
:100D5000304013963C932E93129783E08C9387E058
:100D6000440F551F661F771F8A95D1F7706414963C
:100D70004D935D936D937C93179708951F93DC01BA
:100D8000FB019C91923008F447C08081823008F4C6
:100D900043C0943051F411961C91843099F58181AF
:100DA000682F70E0611B71093FC0843021F09230E0
:100DB00031F48230B9F18181882389F12DC01196F7
:100DC0001C9111978230F1F081811817D9F4129695
:100DD0002D913C911397828193818217930794F010
:100DE00028173907BCF014968D919D910D90BC91F8
:100DF000A02D2481358146815781281739074A075C
:100E00005B0718F4112341F00AC082179307A40767
:100E1000B50740F4112319F061E070E005C06FEFF1
:100E20007FEF02C060E070E0CB011F910895DF9377
:100E3000CF930F92CDB7DEB71982A3E5B0E0E3E51B
:100E4000F0E08081887F8C93A3E5B0E0E3E5F0E0FB
:100E5000808183608C93A3E5B0E0E3E5F0E08081DE
:100E60008F7C8C93A3E5B0E0E3E5F0E080818C9388
:100E7000A9E5B0E0E9E5F0E080818E7F8C93A9E5FB
:100E8000B0E0E9E5F0E080818D7F8C93A3E5B0E0F0
:100E9000E3E5F0E080818F7B8C93A3E5B0E0E3E5B0
:100EA000F0E08081877F8C9381E0898389810F9036
:100EB000CF91DF910895EF92FF920F931F93DF93ED
:100EC000CF93CDB7DEB7A3970FB6F894DEBF0FBEB2
:100ED000CDBF6E8F7F8F88A399A31D8E8FE692E181
:100EE000A3E8BBE3898F9A8FAB8FBC8F698D7A8D16
:100EF0008B8D9C8D20E030E040E853E40E941F027F
:100F0000DC01CB018D8B9E8BAF8BB88F6E8D7F8D6F
:100F100088A199A10E94A904DC01CB01BC01CD01EB
:100F20002D893E894F89588D0E941903DC01CB0120
:100F3000898B9A8BAB8BBC8B69897A898B899C89CD
:100F40000E944900DC01CB010196A11DB11D8D87D6
:100F50009E87AF87B88B69897A898B899C890E9423
:100F60004900DC01CB01BC01CD010E94A9049B0119
:100F7000AC0169897A898B899C890E94C101DC0155
:100F8000CB0189879A87AB87BC8769857A858B85F2
:100F90009C8520E030E040E050E00E94C5038823BB
:100FA00009F49BC069857A858B859C8520E030E0BB
:100FB00040E853E40E941F02DC01CB01BC01CD01DB
:100FC0000E944900DC01CB018D839E83AF83B887EB
:100FD00020E031E040E050E08D819E81AF81B88516
:100FE00079018A01E81AF90A0A0B1B0BD801C7011B
:100FF000BC01CD010E94A904DC01CB0189839A8345
:10100000AB83BC8369817A818B819C810E9449007A
:10101000DC01CB01BC01CD010E94A9049B01AC0104
:1010200069817A818B819C810E94C101DC01CB01A5
:101030001BA2BC01CD0120E030E040E05FE30E9454
:10104000F503882314F001E00BA381E01BA18127A5
:101050008823B1F569817A818B819C810E94490046
:10106000DC01CB01BC01CD010E94A9049B01AC01B4
:1010700069817A818B819C810E94C101DC01CB0155
:101080001AA2BC01CD0120E030E040E85FE30E94FD
:101090002504882314F481E08AA381E09AA189279A
:1010A000882371F402E510E069817A818B819C814B
:1010B0000E944900DC01CB018F5FF80180833CC0B6
:1010C00002E510E069817A818B819C810E94490050
:1010D000DC01CB01F80180832FC069897A898B8973
:1010E0009C890E944900DC01CB0180939001909380
:1010F0009101A0939201B0939301E2E5F0E0108298
:101100001BC0E8E5F0E08081882F90E0817090704E
:101110000097B9F3A8E5B0E0E8E5F0E080818160F0
:101120008C938D859E85AF85B8890197A109B109FA
:101130008D879E87AF87B88B8D859E85AF85B88953
:101140000097A105B105E9F681E08D8F8D8DA396FD
:101150000FB6F894DEBF0FBECDBFCF91DF911F91C8
:101160000F91FF90EF900895DF93CF930F92CDB73B
:10117000DEB71982A9E5B0E0E9E5F0E080818160A1
:101180008C9381E0898389810F90CF91DF910895BD
:10119000DF93CF930F92CDB7DEB71982A9E5B0E008
:1011A000E9E5F0E080818E7F8C9381E089838981FD
:1011B0000F90CF91DF9108951F920F920FB60F926B
:1011C00011242F933F934F935F936F937F938F934C
:1011D0009F93AF93BF93EF93FF93DF93CF93CDB7DD
:1011E000DEB78091840190918501009709F43EC09B
:1011F00080918C0190918D01A0918E01B0918F0111
:101200000196A11DB11D80938C0190938D01A09337
:101210008E01B0938F0120918C0130918D0140910E
:101220008E0150918F018091900190919101A09138
:101230009201B0919301281739074A075B07B1F46F
:1012400010928C0110928D0110928E0110928F01DC
:10125000E2E5F0E0809194018083E0918401F091D7
:10126000850180918801909189010995CF91DF9145
:10127000FF91EF91BF91AF919F918F917F916F916E
:101280005F914F913F912F910F900FBE0F901F9044
:101290001895DF93CF930F92CDB7DEB71982AFE5E4
:1012A000B0E0EFE5F0E080818F778C9381E0898377
:1012B00089810F90CF91DF910895DF93CF930F92A3
:1012C000CDB7DEB71982AFE5B0E0EFE5F0E08081A1
:1012D00080688C9381E0898389810F90CF91DF9121
:1012E0000895DF93CF930F92CDB7DEB71982AFE5A4
:1012F000B0E0EFE5F0E080818F778C9381E0898327
:1013000089810F90CF91DF910895DF93CF93CDB76F
:10131000DEB727970FB6F894DEBF0FBECDBF198298
:1013200080916801813009F058C0ABE5B0E0EBE591
:10133000F0E0808180648C9380916901282F30E0F7
:101340003F832E838E819F8181309105E9F02E812C
:101350003F81223031052CF48E819F81009761F00E
:1013600039C02E813F8122303105E9F08E819F8185
:101370008330910539F12EC0A5E5B0E0E5E5F0E058
:1013800080818C7F8C9334C0A5E5B0E0E5E5F0E08A
:10139000808181608C93A5E5B0E0E5E5F0E0808197
:1013A0008D7F8C9325C0A5E5B0E0E5E5F0E0808178
:1013B0008E7F8C93A5E5B0E0E5E5F0E0808182606A
:1013C0008C9316C0A5E5B0E0E5E5F0E08081836090
:1013D0008C930EC083E089830BC0809168018823C1
:1013E00039F4ABE5B0E0EBE5F0E080818F7B8C93E6
:1013F00080916A01813009F058C0ABE5B0E0EBE5BF
:10140000F0E0808180688C9380916B01282F30E020
:101410003D832C838C819D8181309105E9F02C8165
:101420003D81223031052CF48C819D81009761F043
:1014300039C02C813D8122303105E9F08C819D81BC
:101440008330910539F12EC0A5E5B0E0E5E5F0E087
:101450008081837F8C9334C0A5E5B0E0E5E5F0E0C2
:10146000808184608C93A5E5B0E0E5E5F0E08081C3
:10147000877F8C9325C0A5E5B0E0E5E5F0E08081AD
:101480008B7F8C93A5E5B0E0E5E5F0E08081886096
:101490008C9316C0A5E5B0E0E5E5F0E080818C60B6
:1014A0008C930EC083E089830BC080916A018823EE
:1014B00039F4ABE5B0E0EBE5F0E080818F778C9319
:1014C00080916C01813059F5ABE5B0E0EBE5F0E0DF
:1014D000808180628C9380916D01282F30E03B8366
:1014E0002A838A819B818230910531F02A813B8158
:1014F0002330310549F010C0A4E5B0E0E4E5F0E0A8
:1015000080818F7B8C9316C0A4E5B0E0E4E5F0E029
:10151000808180648C930EC083E089830BC08091AE
:101520006C01882339F4ABE5B0E0EBE5F0E08081B5
:101530008F7D8C93898127960FB6F894DEBF0FBEFE
:10154000CDBFCF91DF910895DF93CF93CDB7DEB7B5
:1015500029970FB6F894DEBF0FBECDBF8A836B8389
:1015600019828A81882309F050C08B81282F30E0AE
:10157000398728878885998581309105E9F0288504
:101580003985223031052CF488859985009761F0E2
:1015900039C02885398522303105E9F0888599855B
:1015A0008330910539F12EC0A5E5B0E0E5E5F0E026
:1015B00080818C7F8C93A2C0A5E5B0E0E5E5F0E0EA
:1015C000808181608C93A5E5B0E0E5E5F0E0808165
:1015D0008D7F8C9393C0A5E5B0E0E5E5F0E08081D8
:1015E0008E7F8C93A5E5B0E0E5E5F0E08081826038
:1015F0008C9384C0A5E5B0E0E5E5F0E080818360F0
:101600008C937CC083E0898379C08A81813009F022
:1016100050C08B81282F30E03F832E838E819F81A5
:1016200081309105E9F02E813F81223031052CF483
:101630008E819F81009761F039C02E813F812230D9
:101640003105E9F08E819F818330910539F12EC0FB
:10165000A5E5B0E0E5E5F0E08081837F8C934EC0A6
:10166000A5E5B0E0E5E5F0E0808184608C93A5E538
:10167000B0E0E5E5F0E08081877F8C933FC0A5E591
:10168000B0E0E5E5F0E080818B7F8C93A5E5B0E0EC
:10169000E5E5F0E0808188608C9330C0A5E5B0E09E
:1016A000E5E5F0E080818C608C9328C083E089833D
:1016B00025C08A81823011F58B81282F30E03D834F
:1016C0002C838C819D818230910531F02C813D816C
:1016D0002330310549F010C0A4E5B0E0E4E5F0E0C6
:1016E00080818F7B8C930AC0A4E5B0E0E4E5F0E054
:1016F000808180648C9302C083E0898389812996EC
:101700000FB6F894DEBF0FBECDBFCF91DF91089525
:10171000DF93CF9300D0CDB7DEB78A8319828A8159
:10172000882341F4ABE5B0E0EBE5F0E08081806434
:101730008C9318C08A81813041F4ABE5B0E0EBE5D1
:10174000F0E0808180688C930DC08A81823041F402
:10175000ABE5B0E0EBE5F0E0808180628C9302C005
:1017600083E0898389810F900F90CF91DF91089555
:10177000DF93CF9300D0CDB7DEB78A8319828A81F9
:10178000882341F4ABE5B0E0EBE5F0E080818F7BAE
:101790008C9318C08A81813041F4ABE5B0E0EBE571
:1017A000F0E080818F778C930DC08A81823041F484
:1017B000ABE5B0E0EBE5F0E080818F7D8C9302C07B
:1017C00083E0898389810F900F90CF91DF910895F5
:1017D000DF93CF9300D000D0CDB7DEB79B838A8351
:1017E0006C8319828A819B81009799F08C81833068
:1017F00068F48C81882F90E0880F991FFC01EB56CC
:10180000FE4F8A819B819183808305C083E0898319
:1018100002C082E0898389810F900F900F900F9012
:10182000CF91DF9108951F920F920FB60F9211245E
:101830002F933F934F935F936F937F938F939F93D8
:10184000AF93BF93EF93FF93DF93CF93CDB7DEB703
:10185000E0919501F09196010995CF91DF91FF916B
:10186000EF91BF91AF919F918F917F916F915F9118
:101870004F913F912F910F900FBE0F901F90189591
:101880001F920F920FB60F9211242F933F934F93F5
:101890005F936F937F938F939F93AF93BF93EF93D8
:1018A000FF93DF93CF93CDB7DEB7E0919701F0912F
:1018B00098010995CF91DF91FF91EF91BF91AF9181
:1018C0009F918F917F916F915F914F913F912F9158
:1018D0000F900FBE0F901F9018951F920F920FB68A
:1018E0000F9211242F933F934F935F936F937F93A6
:1018F0008F939F93AF93BF93EF93FF93DF93CF9318
:10190000CDB7DEB7E0919901F0919A010995CF9199
:10191000DF91FF91EF91BF91AF919F918F917F9157
:101920006F915F914F913F912F910F900FBE0F904C
:101930001F901895DF93CF930F92CDB7DEB7198222
:10194000EAE3F0E081EB8083EBE3F0E086E1808383
:1019500089810F90CF91DF910895DF93CF9300D0CD
:1019600000D000D0CDB7DEB78A836B834C83198259
:101970008A81843008F0D1C08B81883008F0CDC0D6
:101980008C81823008F0C9C08A81282F30E03E83E4
:101990002D836D817E816130710509F441C08D8197
:1019A0009E818230910534F42D813E8121153105CF
:1019B00071F0B0C06D817E816230710509F459C04B
:1019C0008D819E818330910509F47CC0A3C0AAE378
:1019D000B0E0EAE3F0E08081482F8B81282F30E0EF
:1019E00081E090E002C0880F991F2A95E2F7809568
:1019F00084238C93AAE3B0E0EAE3F0E08081482FEF
:101A00008C81282F30E08B81882F90E0B90102C0B3
:101A1000660F771F8A95E2F7CB01842B8C937AC0EF
:101A2000A7E3B0E0E7E3F0E08081482F8B81282F27
:101A300030E081E090E002C0880F991F2A95E2F71C
:101A4000809584238C93A7E3B0E0E7E3F0E0808106
:101A5000482F8C81282F30E08B81882F90E0B901AE
:101A600002C0660F771F8A95E2F7CB01842B8C9317
:101A700051C0A4E3B0E0E4E3F0E08081482F8B8123
:101A8000282F30E081E090E002C0880F991F2A954E
:101A9000E2F7809584238C93A4E3B0E0E4E3F0E0E4
:101AA0008081482F8C81282F30E08B81882F90E017
:101AB000B90102C0660F771F8A95E2F7CB01842B2C
:101AC0008C9328C0A1E3B0E0E1E3F0E08081482FEF
:101AD0008B81282F30E081E090E002C0880F991FB1
:101AE0002A95E2F7809584238C93A1E3B0E0E1E3AB
:101AF000F0E08081482F8C81282F30E08B81882F67
:101B000090E0B90102C0660F771F8A95E2F7CB011A
:101B1000842B8C9381E0898302C083E0898389814F
:101B200026960FB6F894DEBF0FBECDBFCF91DF91E2
:101B30000895DF93CF9300D000D000D0CDB7DEB7AB
:101B40008A836B834C8319828A81843008F0D4C0E5
:101B50008B81883008F0D0C08C81823020F08C815D
:101B6000823008F0C9C08A81282F30E03E832D835F
:101B70006D817E816130710509F441C08D819E8146
:101B80008230910534F42D813E812115310571F0AB
:101B9000B0C06D817E816230710509F459C08D81BC
:101BA0009E818330910509F47CC0A3C0ABE3B0E013
:101BB000EBE3F0E08081482F8B81282F30E081E03B
:101BC00090E002C0880F991F2A95E2F78095842340
:101BD0008C93ABE3B0E0EBE3F0E08081482F8C81A5
:101BE000282F30E08B81882F90E0B90102C0660F6A
:101BF000771F8A95E2F7CB01842B8C937AC0A8E3F8
:101C0000B0E0E8E3F0E08081482F8B81282F30E0BE
:101C100081E090E002C0880F991F2A95E2F7809535
:101C200084238C93A8E3B0E0E8E3F0E08081482FC0
:101C30008C81282F30E08B81882F90E0B90102C081
:101C4000660F771F8A95E2F7CB01842B8C9351C0E6
:101C5000A5E3B0E0E5E3F0E08081482F8B81282FF9
:101C600030E081E090E002C0880F991F2A95E2F7EA
:101C7000809584238C93A5E3B0E0E5E3F0E08081D8
:101C8000482F8C81282F30E08B81882F90E0B9017C
:101C900002C0660F771F8A95E2F7CB01842B8C93E5
:101CA00028C0A2E3B0E0E2E3F0E08081482F8B811E
:101CB000282F30E081E090E002C0880F991F2A951C
:101CC000E2F7809584238C93A2E3B0E0E2E3F0E0B6
:101CD0008081482F8C81282F30E08B81882F90E0E5
:101CE000B90102C0660F771F8A95E2F7CB01842BFA
:101CF0008C9381E0898302C083E089838981269661
:101D00000FB6F894DEBF0FBECDBFCF91DF9108951F
:101D1000DF93CF9300D000D00F92CDB7DEB78A8388
:101D20006B8319828A81843008F075C08B8188307A
:101D300008F071C08A81282F30E03D832C838C818C
:101D40009D818130910549F12C813D812230310501
:101D50002CF48C819D81009761F05AC02C813D81CB
:101D60002230310571F18C819D8183309105E9F13B
:101D70004FC0ABE3B0E0EBE3F0E08081482F8B8114
:101D8000282F30E081E090E0022E02C0880F991FDA
:101D90000A94E2F784278C933BC0A8E3B0E0E8E321
:101DA000F0E08081482F8B81282F30E081E090E0A7
:101DB000022E02C0880F991F0A94E2F784278C93A1
:101DC00027C0A5E3B0E0E5E3F0E08081482F8B81F8
:101DD000282F30E081E090E0022E02C0880F991F8A
:101DE0000A94E2F784278C9313C0A2E3B0E0E2E305
:101DF000F0E08081482F8B81282F30E081E090E057
:101E0000022E02C0880F991F0A94E2F784278C9350
:101E100081E0898302C083E0898389810F900F90DC
:101E20000F900F900F90CF91DF910895DF93CF9394
:101E3000CDB7DEB727970FB6F894DEBF0FBECDBF84
:101E40008A836B835D834C8319828C819D8100978B
:101E500009F47EC08A81843008F077C08B81883095
:101E600008F073C08A81282F30E03F832E834E8193
:101E70005F814130510559F18E819F8182309105FA
:101E800034F42E813F812115310569F05BC04E810C
:101E90005F814230510579F18E819F8183309105B8
:101EA00009F43DC04FC0E9E3F0E08081282F30E025
:101EB0008B81882F90E0A90102C0559547958A959E
:101EC000E2F7CA018170EC81FD8180833BC0E9E3C8
:101ED000F0E08081282F30E08B81882F90E0A901ED
:101EE00002C0559547958A95E2F7CA018170EC8149
:101EF000FD81808327C0E9E3F0E08081282F30E076
:101F00008B81882F90E0A90102C0559547958A954D
:101F1000E2F7CA018170EC81FD81808313C0E9E39F
:101F2000F0E08081282F30E08B81882F90E0A9019C
:101F300002C0559547958A95E2F7CA018170EC81F8
:101F4000FD81808381E0898305C083E0898302C0AD
:101F500082E08983898127960FB6F894DEBF0FBE91
:101F6000CDBFCF91DF910895DF93CF9300D000D004
:101F7000CDB7DEB71C821B821A82198219825AC021
:101F80008981282F30E0C901880F991F820F931F84
:101F9000FC01E259FE4F40818981282F30E0C901C0
:101FA000880F991F820F931FFC01E159FE4F90810A
:101FB000842F692F40E00E94AD0C882F90E09B8316
:101FC0008A838981282F30E0C901880F991F820FE9
:101FD000931FFC01E259FE4F50818981282F30E088
:101FE000C901880F991F820F931FFC01E259FE4F10
:101FF00041818981282F30E0C901880F991F820F04
:10200000931FFC01E259FE4F9281852F642F492FC7
:102010000E94990D882F90E0880F991F880F991FB3
:102020009C018A819B81822B932B9B838A8389814C
:102030008F5F89838981882309F4A2CF8A819B815C
:102040008530910511F481E08C838C810F900F9085
:102050000F900F90CF91DF910895DF93CF9300D031
:102060000F92CDB7DEB79B838A83198280916E0170
:1020700090916F012A813B81692FA9010E94160F5F
:1020800089810F900F900F90CF91DF910895DF938A
:10209000CF9300D0CDB7DEB71A82198221C08981D3
:1020A000282F30E0C901880F991F820F931FFC0170
:1020B000EF58FE4F40818981282F30E0C901880FF9
:1020C000991F820F931FFC01EE58FE4F9081842FC1
:1020D000692F41E00E94AD0C8A8389818F5F8983DB
:1020E00089818730E0F28A810F900F90CF91DF9144
:1020F0000895DF93CF9300D0CDB7DEB78A831982DE
:102100008A81863008F05DC08A81282F30E0C901BD
:10211000880F991F820F931FFC01ED58FE4F80819D
:102120008823F9F48A81282F30E0C901880F991F8C
:10213000820F931FFC01EF58FE4F40818A81282FA8
:1021400030E0C901880F991F820F931FFC01EE58E0
:10215000FE4F9081842F692F40E00E94990D898362
:1021600032C08A81282F30E0C901880F991F820F61
:10217000931FFC01ED58FE4F80818130F9F48A8174
:10218000282F30E0C901880F991F820F931FFC018F
:10219000EF58FE4F40818A81282F30E0C901880F17
:1021A000991F820F931FFC01EE58FE4F9081842FE0
:1021B000692F41E00E94990D898305C083E08983DE
:1021C00002C083E0898389810F900F90CF91DF91C6
:1021D0000895DF93CF9300D0CDB7DEB78A831982FD
:1021E0008A81863008F05DC08A81282F30E0C901DD
:1021F000880F991F820F931FFC01ED58FE4F8081BD
:102200008823F9F48A81282F30E0C901880F991FAB
:10221000820F931FFC01EF58FE4F40818A81282FC7
:1022200030E0C901880F991F820F931FFC01EE58FF
:10223000FE4F9081842F692F41E00E94990D898380
:1022400032C08A81282F30E0C901880F991F820F80
:10225000931FFC01ED58FE4F80818130F9F48A8193
:10226000282F30E0C901880F991F820F931FFC01AE
:10227000EF58FE4F40818A81282F30E0C901880F36
:10228000991F820F931FFC01EE58FE4F9081842FFF
:10229000692F40E00E94990D898305C083E08983FE
:1022A00002C083E0898389810F900F90CF91DF91E5
:1022B0000895DF93CF9300D0CDB7DEB78A8319821C
:1022C0008A818630E8F48A81282F30E0C901880F9E
:1022D000991F820F931FFC01EF58FE4F40818A81A6
:1022E000282F30E0C901880F991F820F931FFC012E
:1022F000EE58FE4F9081842F692F0E94880E02C0F5
:1023000083E0898389810F900F90CF91DF910895A9
:10231000DF93CF93CDB7DEB780919C01813039F543
:1023200080E00E94791085E00E94791088E893E1AE
:102330000E945B0780E00E94E91085E00E94E9109E
:102340000E94741283E00E94791082E00E9479104A
:1023500088E893E10E945B0782E00E94E91083E035
:102360000E94E91088E893E10E945B0759C08091C0
:102370009B01813069F50E94741283E00E94E9108C
:1023800082E00E94E91080E00E94791085E00E94BE
:10239000791088E893E10E945B0780E00E94E910D1
:1023A00085E00E94E9100E94741282E00E94791078
:1023B00083E00E94791088E893E10E945B0785E042
:1023C0000E94E91080E00E94E9100E94741228C067
:1023D00080918301813021F50E94741282E00E9475
:1023E000E91083E00E94E91080E00E94791085E006
:1023F0000E94791088E893E10E945B0780E00E94C8
:10240000E91085E00E94E9100E94741282E00E94A7
:10241000791083E00E94791088E893E10E945B07BD
:10242000CF91DF910895DF93CF9300D00F92CDB776
:10243000DEB71B820E944710882F90E09A83898321
:102440000E94B40F882F90E0880F991F880F991F62
:102450009A8389830E941707880F991F880F991FF5
:102460009A8389830E948509880F991F880F991F75
:102470009A838983AAE5B0E0EAE5F0E08081816093
:102480008C930E944909880F991F880F991F9A837E
:1024900089830E945D09880F991F880F991F9A836D
:1024A000898389819A8125E08535920711F481E03D
:1024B0008B838B810F900F900F90CF91DF910895B8
:1024C000DF93CF930F92CDB7DEB7198288E891E101
:1024D00060E070E00E94E80B89830E949A12898173
:1024E0000F90CF91DF910895DF93CF930F92CDB7E7
:1024F000DEB781E080939B0119820DC084E00E94C9
:10250000591181E00E9459118AEF90E00E945B0707
:1025100089818F5F89838981843180F384E00E947F
:10252000E91081E00E94E91010929B010F90CF9179
:10253000DF910895DF93CF93CDB7DEB782E00E949D
:10254000791081E08093830183E00E94791088E80C
:1025500093E10E945B0782E00E94E91010928301E0
:1025600083E00E94E9100E94741280E00E947910BA
:1025700081E080939C0185E00E94791088E893E1D6
:102580000E945B0780E00E94E91010929C0185E0A8
:102590000E94E9100E947412CF91DF910895DF9399
:1025A000CF93CDB7DEB70E9413120E946012FDCF09
:1025B0002F923F924F925F926F927F928F929F9253
:1025C000AF92BF92CF92DF92EF92FF920F931F9341
:1025D000CF93DF93CDB7DEB7CA1BDB0B0FB6F894F2
:1025E000DEBF0FBECDBF09942A88398848885F8432
:1025F0006E847D848C849B84AA84B984C884DF80A3
:10260000EE80FD800C811B81AA81B981CE0FD11D86
:102610000FB6F894DEBF0FBECDBFED010895F8945C
:02262000FFCFEA
:102622000000000000000000000102020303030397
:102632000404040404040404050505050505050550
:102642000505050505050505060606060606060630
:102652000606060606060606060606060606060618
:102662000606060606060606070707070707070700
:1026720007070707070707070707070707070707E8
:1026820007070707070707070707070707070707D8
:1026920007070707070707070707070707070707C8
:1026A20007070707070707070808080808080808B0
:1026B2000808080808080808080808080808080898
:1026C2000808080808080808080808080808080888
:1026D2000808080808080808080808080808080878
:1026E2000808080808080808080808080808080868
:1026F2000808080808080808080808080808080858
:102702000808080808080808080808080808080847
:102712000808080808080808080808080808080837
:10272200080808080808080801020000000003025F
:10273200000000010001010002010100010101018C
:04274200010201018E
:00000001FF
